:020000040000FA
:10000000A8060020E1010000E5010000E701000072
:1000100000000000000000000000000000000000E0
:10002000000000000000000000000000E9010000E6
:100030000000000000000000EB010000ED010000E6
:10004000EF010000EF010000EF010000EF010000F0
:10005000EF010000EF010000EF010000EF010000E0
:10006000EF010000EF010000EF010000EF010000D0
:100070006B060000EF010000EF010000EF0100003F
:10008000EF010000EF010000EF010000EF010000B0
:10009000EF010000EF010000EF010000EF010000A0
:1000A000EF010000EF010000EF010000EF01000090
:1000B000EF010000EF010000EF010000EF01000080
:1000C00000F002F800F048F80CA030C808382418F6
:1000D0002D18A246671EAB4654465D46AC4201D180
:1000E00000F03AF87E460F3E0FCCB646012633426A
:1000F00000D0FB1AA246AB4633431847240B00003E
:10010000440B0000103A02D378C878C1FAD85207DD
:1001100001D330C830C101D504680C6070470000BD
:100120000023002400250026103A01D378C1FBD813
:10013000520700D330C100D50B60704710B5782945
:1001400002D100F029FB10BD002010BD1FB5C04634
:10015000C0461FBD10B510BD00F006FD1146FFF7EB
:10016000F5FF00F093FA00F01EFD03B4FFF7F2FF75
:1001700003BC00F023FD000070B51248006945077C
:100180006D0F002D01D1104C08E0032D01D10F4C53
:1001900004E0072D01D10E4C00E00D4C09488069A8
:1001A0000007000F411C204600F0AAFB0949086027
:1001B0000949084800684A10801800F0A1FB074967
:1001C000086070BD00020050001BB700102700003F
:1001D000008051010000002040420F000400002078
:1001E00006480047FEE7FEE7FEE7FEE7FEE7FEE71C
:1001F00003480449024A044B70470000C100000054
:10020000A8040020A8060020A804002000BF13496D
:1002100089690122D2051142F9D1104908600A28E2
:1002200009D100BF0D4989690122D2051142F9D1D6
:100230000D210A4A1160704700B503461846FFF7C2
:10024000E5FF00BD30B504460D462046FFF7F4FF3C
:10025000204630BD01460020C043704700000540E5
:10026000F0B585B004460D46194801460EC9C06870
:100270006E460EC6039017484069032109060840E0
:10028000070E002020630320E0600020A060002D06
:100290001BD0B9006A4651586A088818294600F0F0
:1002A0002FFB861E0C4886420BD9B9006A4651586E
:1002B000EA008818294600F023FB0009801E6062CE
:1002C00003E0032000073043606205B0F0BD00008A
:1002D000D80B000000020050FFFF0000002008497A
:1002E0000860704706E0592005490860162008603C
:1002F00088200860024800680128F4D17047000097
:10030000000100501B21090304E00A46491E002A8F
:1003100000DC04E0034AD26802408242F5D100BF0B
:10032000704700000002005002462948824206D170
:100330002848406907231B021840010A05E02548A8
:10034000406907231B031840010B00290AD12148EB
:1003500000688007800F012801D11F4870470120E5
:10036000C003FBE7012901D11C48F7E7022902D1AC
:100370001B480068F2E71B48F0E7FEB505460F464C
:1003800016462846FFF7D0FF044600200190009053
:100390006008B04202D2022001900AE01248844272
:1003A00002D90120009064083146204600F0A8FAE6
:1003B000019000983843286001986860009A521CA8
:1003C000019850430146204600F09AFAFEBD000015
:1003D0000000014000020050001BB7001027000081
:1003E0000000002000805101FFFFFF0010B5FFF763
:1003F00079FF0520B34908601120FFF783FFB24859
:10040000B049886008464069032109068843AD4920
:100410004861FFF7B1FEAD480521090708633020A8
:10042000C863FFF75BFF10BD10B5A9480268012142
:100430000907A848FFF7A1FFA64800F036F9A4482D
:100440000068420001210907A2482030FFF795FF0C
:10045000A048203000F029F910BD10B59D4800F0EB
:100460002AF99B480268012109079A48FFF785FF8E
:10047000984800F01AF99748203000F01CF9944889
:10048000006842000121090792482030FFF775FFFC
:100490009048203000F009F910BD10B58EA000F092
:1004A0006DF994A000F06AF996A000F067F99CA09D
:1004B00000F064F910BD70B5FF25A148C46980152E
:1004C000044278D0CAE09F480068022875DD012008
:1004D0009C49086052E09B48006880009A4908588F
:1004E000302810D3974800688000085839280AD867
:1004F000944800688000085830389249096889009B
:10050000914A505035E08F48006880008E49085865
:10051000412810D38B4800688000085846280AD824
:10052000884800688000085837388649096889007B
:10053000854A50501DE08348006880008249085871
:10054000612810D37F4800688000085866280AD8C0
:100550007C4800688000085857387A490968890043
:10056000794A505005E00020764909688900764AAA
:10057000505074480068401C724908607148006817
:100580000328A8DB7048406800016F49896840185B
:100590006D49C8600846C0684D490860FFF75DFFB7
:1005A0006948C16869A000F0E9F800206549086061
:1005B000FFF773FF14E057E0FFE761480068614907
:1005C00009688900604A50505E4800688000114602
:1005D00008585B4908605B480068401C594908603E
:1005E0006148006801218902884215D25F4860494C
:1005F000096845545E4800683449FC31884201D19D
:10060000002002E05A480068401C594908605648DA
:100610000068401C544908600120400204421DD07B
:100620005349096888B253490968814215D04F4936
:10063000504A12688D5C4F490968244AFC32914245
:1006400001D1002102E04B490968491C494A116067
:1006500045490968491E444A116000BF3848C069CD
:10066000C007C00F00D02EE770BD10B5FFF723FF05
:1006700010BD3348406813210843314948600C20BD
:10068000012181403C4A116000BF7047FFF7AEFE78
:10069000FFF7CAFEE12149022948FFF7E1FDFFF714
:1006A000FCFEFFF7E6FF00BFFEE7016801229207AC
:1006B0001143016070470168012292079143016074
:1006C00070470000000200500C000100030300000E
:1006D00028000020000001403D3D3D3D3D3D3D3DA9
:1006E0003D3D3D3D3D3D3D3D3D3D3D3D3D3D3D3D3A
:1006F0003D0A00003D4C65506F7765725F5350496D
:100700003D0A00003D3D3D3D3D3D3D3D3D3D3D3DC6
:100710003D3D3D3D3D3D3D3D3D3D3D3D3D0A0A00AC
:100720005673796E635F4E202832784E78333048A6
:100730007A2C204E3D307E3429203A203127680023
:10074000000005402400002038040020200A204931
:100750006E7075742056616C7573652069732030F6
:10076000782578200A0000001000002038000020C2
:10077000180000201400002000E100E00FB405493B
:1007800010B503AA029800F0C3F910BC08BC04B06D
:10079000184700000800002070B504460D462146A9
:1007A0001068C046C0462168090502D50F4A7A4440
:1007B00002E00E4A7A440E3223460021243305E03B
:1007C0000607360F965D5E54491C00090028F7D1D4
:1007D00020680023000705D5702D03D0002901D023
:1007E00011320223204600F03BF970BD46040000A0
:1007F000F3B50446002081B07EE0E16820468847DA
:1008000000287BD0252802D06268A16871E0E168E9
:1008100020460025884706460020E0610746A06183
:100820002A2E0AD0304600F0D0F9002827D0303EDA
:10083000B80000190090866119E00298BA001219F8
:1008400002C8916102902046E1688847012F064660
:1008500017D1E06900281FDA202085431CE00098AA
:100860000A21806948430099801930388861204600
:10087000E1688847064600F0A8F90028EFD1012F6B
:100880000AD02E2E08D12046E1688847064620204F
:1008900005437F1C022FC3DBA069002803DA404216
:1008A000A06101200543E80701D010208543002EF8
:1008B00024D030464138192803D80120C00205430E
:1008C0002036204625603146029A1546FFF736FC51
:1008D00000280BD0012806D0ED1DE808C000083024
:1008E00002908AE70AE02D1D029586E7626830468D
:1008F000A1689047206A401C20627EE7206AFEBD06
:10090000002203098B422CD3030A8B4211D300230C
:100910009C464EE003460B433CD4002243088B42E6
:1009200031D303098B421CD3030A8B4201D3944673
:100930003FE0C3098B4201D3CB01C01A5241830966
:100940008B4201D38B01C01A524143098B4201D320
:100950004B01C01A524103098B4201D30B01C01A4B
:100960005241C3088B4201D3CB00C01A52418308C5
:100970008B4201D38B00C01A524143088B4201D3F2
:100980004B00C01A5241411A00D201465241104652
:1009900070475DE0CA0F00D04942031000D34042C7
:1009A000534000229C4603098B422DD3030A8B42FD
:1009B00012D3FC22890112BA030A8B420CD389019B
:1009C00092118B4208D3890192118B4204D3890181
:1009D0003AD0921100E08909C3098B4201D3CB01BF
:1009E000C01A524183098B4201D38B01C01A524174
:1009F00043098B4201D34B01C01A524103098B4278
:100A000001D30B01C01A5241C3088B4201D3CB0062
:100A1000C01A524183088B4201D38B00C01A524145
:100A2000D9D243088B4201D34B00C01A5241411A1C
:100A300000D20146634652415B10104601D340424A
:100A4000002B00D54942704763465B1000D34042FB
:100A500001B50020C046C04602BD704770477047D0
:100A6000FFB504460D4681B0243000902168880609
:100A700004D51022E0699143216000E00120A842E2
:100A800001DD471B00E000270498A1697A191018BE
:100A9000081AA0612068C00602D42046C046C0469D
:100AA000002608E003986268A168805D9047206A8C
:100AB000401C761C206204988642F3DB2068C00646
:100AC0000AD52046C046C04606E06268A1683020CC
:100AD0009047206A401C206238467F1E0028F4DCC4
:100AE00007E000986268A168405D9047206A401C5A
:100AF000206228466D1E0028F3DC2046C046C04612
:100B00002068000602D5022005B0F0BD0120FBE7F9
:100B1000084B70B50C467B4400F013F805462046A0
:100B2000FFF798FB002802D00020C04370BD284684
:100B300070BD00002BF7FFFF01694A1C02610878B5
:100B4000704700B58FB002910021059105490193CE
:100B500079440391114604906846FFF749FE0FB0AF
:100B600000BD0000E5FFFFFF754600F023F8AE462C
:100B7000050069465346C008C000854618B020B538
:100B8000FFF736FB60BC00274908B6460026C0C503
:100B9000C0C5C0C5C0C5C0C5C0C5C0C5C0C5403D35
:100BA00049008D4670470446C046C0462046FFF7C0
:100BB000DCFA000000487047440400200149182076
:100BC000ABBEFEE726000200704730380A2801D28B
:100BD0000120704700207047001BB7000000000094
:100BE0000080510100805101001BB700000000008F
:100BF00000805101008051013031323334353637B5
:100C00003839414243444546403058003031323350
:100C10003435363738396162636465664030780050
:100C2000400C0000000000202C0000000401000027
:100C30006C0C00002C0000207C060000200100004D
:100C400000805101160000000000000000000000BC
:100C50000100000000000000000000000100000092
:0C0C60000000000001000000E80300009C
:04000005000001E115
:00000001FF
