:020000040000FA
:10000000A8060020E1010000E5010000E701000072
:1000100000000000000000000000000000000000E0
:10002000000000000000000000000000E9010000E6
:100030000000000000000000EB010000ED010000E6
:10004000EF010000EF010000EF010000EF010000F0
:10005000EF010000EF010000EF010000EF010000E0
:10006000EF010000EF010000EF010000EF010000D0
:100070005D070000EF010000EF010000EF0100004C
:10008000EF010000EF010000EF010000EF010000B0
:10009000EF010000EF010000EF010000EF010000A0
:1000A000EF010000EF010000EF010000EF01000090
:1000B000EF010000EF010000EF010000EF01000080
:1000C00000F002F800F048F80CA030C808382418F6
:1000D0002D18A246671EAB4654465D46AC4201D180
:1000E00000F03AF87E460F3E0FCCB646012633426A
:1000F00000D0FB1AA246AB46334318476C0C0000F5
:100100008C0C0000103A02D378C878C1FAD8520794
:1001100001D330C830C101D504680C6070470000BD
:100120000023002400250026103A01D378C1FBD813
:10013000520700D330C100D50B60704710B5782945
:1001400002D100F0CDFB10BD002010BD1FB5C04690
:10015000C0461FBD10B510BD00F0AAFD1146FFF747
:10016000F5FF00F024FB00F0C2FD03B4FFF7F2FF3F
:1001700003BC00F0C7FD000070B5124800694507D8
:100180006D0F002D01D1104C08E0032D01D10F4C53
:1001900004E0072D01D10E4C00E00D4C09488069A8
:1001A0000007000F411C204600F04EFC0949086082
:1001B0000949084800684A10801800F045FC0749C2
:1001C000086070BD00020050001BB700102700003F
:1001D000008051010000002040420F000400002078
:1001E00006480047FEE7FEE7FEE7FEE7FEE7FEE71C
:1001F00003480449024A044B70470000C100000054
:10020000A8040020A8060020A804002000BF13496D
:1002100089690122D2051142F9D1104908600A28E2
:1002200009D100BF0D4989690122D2051142F9D1D6
:100230000D210A4A1160704700B503461846FFF7C2
:10024000E5FF00BD30B504460D462046FFF7F4FF3C
:10025000204630BD01460020C043704700000540E5
:10026000F0B585B004460D46194801460EC9C06870
:100270006E460EC6039017484069032109060840E0
:10028000070E002020630320E0600020A060002D06
:100290001BD0B9006A4651586A088818294600F0F0
:1002A000D3FB861E0C4886420BD9B9006A465158CA
:1002B000EA008818294600F0C7FB0009801E60622A
:1002C00003E0032000073043606205B0F0BD00008A
:1002D000200D000000020050FFFF00000020084930
:1002E0000860704706E0592005490860162008603C
:1002F00088200860024800680128F4D17047000097
:100300000001005010B5FFF737FF0948006810BD25
:100310001B21090304E00A46491E002A00DC04E010
:10032000044AD26802408242F5D100BF7047000003
:10033000000000200002005002462948824206D1F7
:100340002848406907231B021840010A05E0254898
:10035000406907231B031840010B00290AD12148DB
:1003600000688007800F012801D11F4870470120D5
:10037000C003FBE7012901D11C48F7E7022902D19C
:100380001B480068F2E71B48F0E7FEB505460F463C
:1003900016462846FFF7D0FF044600200190009043
:1003A0006008B04202D2022001900AE01248844262
:1003B00002D90120009064083146204600F044FB39
:1003C000019000983843286001986860009A521C98
:1003D000019850430146204600F036FBFEBD000068
:1003E0000000014000020050001BB7001027000071
:1003F0000000002000805101FFFFFF00FFB581B029
:1004000004460F461E461D48806801210903084323
:100410001A498860202E00D10026F0003843039945
:1004200008432060FFF76EFF0090154D0A980028E2
:1004300011D00A99009800F007FB401C4008451EA7
:100440000F48854200D905460E484068000C00045C
:100450002843606001E000206060681C4100009853
:1004600000F0F2FA05B0F0BD30B584680B461343D6
:1004700008252B431C43846030BD0000000200505F
:10048000FFFF00000000034010B5FFF72BFF052021
:10049000D54908601120FFF73BFFD448D249886056
:1004A00008464069032109068843CF494861FFF7A0
:1004B00063FECF480521090708633020C86308465A
:1004C000006B0F2109030843052109070863FFF7A3
:1004D00005FF10BD10B5C748026801210907C648CD
:1004E000FFF753FFC44800F073F9C24800684200A8
:1004F00001210907C0482030FFF747FFBE482030E0
:1005000000F066F910BD10B5BB4800F067F9B948B6
:10051000026801210907B848FFF737FFB64800F025
:1005200057F9B548203000F059F9B2480068420048
:1005300001210907B0482030FFF727FFAE482030DF
:1005400000F046F910BD10B5ACA000F0BBF9B2A0A8
:1005500000F0B8F9B4A000F0B5F9BAA000F0B2F913
:1005600010BD70B5FF25BF48C469801504427DD019
:10057000EDE0BD480068022879DD0120BA49086035
:1005800052E0B94800688000B8490858302810D3B4
:10059000B54800688000085839280AD8B248006871
:1005A000800008583038B04909688900AF4A505077
:1005B00035E0AD4800688000AC490858412810D3A8
:1005C000A94800688000085846280AD8A64800684C
:1005D000800008583738A44909688900A34A505058
:1005E0001DE0A14800688000A0490858612810D388
:1005F0009D4800688000085866280AD89A48006814
:10060000800008585738984909688900974A50501F
:1006100005E00020944909688900944A50509248A6
:100620000068401C904908608F4800680328A8DBD8
:100630008E48406800018D49896840188B49C86020
:100640000846C0686B490860FFF75DFF8749C868C6
:100650008749086200BF00BF0846006801210843BF
:100660008349086000BF00BF00BF01E075E01DE0E6
:100670007F480068C007C00F01214840484000285B
:10068000F2D17A48C1687BA000F01CF900BF78481D
:10069000006976490861084601697DA000F012F9F9
:1006A000002071490860FFF74EFF12E06D480068B6
:1006B0006D49096889006D4A50506B480068800098
:1006C000114608586749086067480068401C664939
:1006D00008607648006801218902884215D2744872
:1006E000744909684554734800684149FC3188429F
:1006F00001D1002002E06F480068401C6D4908608D
:100700006A480068401C69490860012040020442B0
:100710001DD06849096888B267490968814215D0C7
:100720006349654A12688D5C63490968304AFC3246
:10073000914201D1002102E05F490968491C5E4AEB
:1007400011605A490968491E584A116000BF45485E
:10075000C069C007C00F00D00BE770BD10B5FFF730
:1007600000FF10BD3F484068132108433D494860E1
:100770000C2001218140514A116000BF704708B52B
:100780004F4820230422002100903948FFF736FE0D
:1007900000BF374800680321C90408433449086092
:1007A00000BF002201213248FFF75EFE08BDFFF7BF
:1007B0006BFEFFF7E4FFFFF78DFEE12149022948B8
:1007C000FFF74EFDFFF7BFFEFFF7CCFF00BFFEE7D0
:1007D00001680122920711430160704701680122FC
:1007E0009207914301607047000200500C00010025
:1007F0000303000028000020000001403D3D3D3D76
:100800003D3D3D3D3D3D3D3D3D3D3D3D3D3D3D3D18
:100810003D3D3D3D3D0A00003D4C65506F776572A2
:100820005F5350493D0A00003D3D3D3D3D3D3D3D4E
:100830003D3D3D3D3D3D3D3D3D3D3D3D3D3D3D3DE8
:100840003D0A0A005673796E635F4E202832784E57
:10085000783330487A2C204E3D307E3429203A209F
:1008600031276800000005402400002038040020E3
:1008700000000340200A20496E7075742056616C98
:100880007573652069732030782578200A00000090
:10089000200A20526563656976652056616C757320
:1008A000652069732030782578200A001000002028
:1008B00038000020180000201400002000E100E0B3
:1008C00080841E000FB4054910B503AA029800F0F9
:1008D000C3F910BC08BC04B0184700000800002091
:1008E00070B504460D4621461068C046C0462168D2
:1008F000090502D50F4A7A4402E00E4A7A440E32C4
:1009000023460021243305E00607360F965D5E542A
:10091000491C00090028F7D120680023000705D5ED
:10092000702D03D0002901D011320223204600F09F
:100930003BF970BD46040000F3B50446002081B0C9
:100940007EE0E1682046884700287BD0252802D039
:100950006268A16871E0E168204600258847064684
:100960000020E0610746A0612A2E0AD0304600F040
:10097000D0F9002827D0303EB800001900908661D9
:1009800019E00298BA00121902C89161029020463B
:10099000E1688847012F064617D1E06900281FDA71
:1009A000202085431CE000980A2180694843009973
:1009B0008019303888612046E1688847064600F093
:1009C000A8F90028EFD1012F0AD02E2E08D12046F9
:1009D000E16888470646202005437F1C022FC3DBC1
:1009E000A069002803DA4042A06101200543E8071E
:1009F00001D010208543002E24D0304641381928DC
:100A000003D80120C0020543203620462560314628
:100A1000029A1546FFF792FB00280BD0012806D05A
:100A2000ED1DE808C000083002908AE70AE02D1D9D
:100A3000029586E762683046A1689047206A401CAC
:100A400020627EE7206AFEBD002203098B422CD380
:100A5000030A8B4211D300239C464EE003460B430E
:100A60003CD4002243088B4231D303098B421CD370
:100A7000030A8B4201D394463FE0C3098B4201D362
:100A8000CB01C01A524183098B4201D38B01C01A9A
:100A9000524143098B4201D34B01C01A5241030911
:100AA0008B4201D30B01C01A5241C3088B4201D3C0
:100AB000CB00C01A524183088B4201D38B00C01A6D
:100AC000524143088B4201D34B00C01A5241411A94
:100AD00000D201465241104670475DE0CA0F00D077
:100AE0004942031000D34042534000229C46030970
:100AF0008B422DD3030A8B4212D3FC22890112BAF6
:100B0000030A8B420CD3890192118B4208D38901CD
:100B100092118B4204D389013AD0921100E08909E5
:100B2000C3098B4201D3CB01C01A524183098B42C6
:100B300001D38B01C01A524143098B4201D34B01AF
:100B4000C01A524103098B4201D30B01C01A524112
:100B5000C3088B4201D3CB00C01A524183088B4299
:100B600001D38B00C01A5241D9D243088B4201D322
:100B70004B00C01A5241411A00D20146634652410D
:100B80005B10104601D34042002B00D5494270470C
:100B900063465B1000D3404201B50020C046C0460A
:100BA00002BD704770477047FFB504460D4681B0DF
:100BB000243000902168880604D51022E069914312
:100BC000216000E00120A84201DD471B00E0002772
:100BD0000498A1697A191018081AA0612068C00643
:100BE00002D42046C046C046002608E0039862684A
:100BF000A168805D9047206A401C761C20620498A2
:100C00008642F3DB2068C0060AD52046C046C046AF
:100C100006E06268A16830209047206A401C20628C
:100C200038467F1E0028F4DC07E000986268A1685F
:100C3000405D9047206A401C206228466D1E0028B7
:100C4000F3DC2046C046C0462068000602D50220DC
:100C500005B0F0BD0120FBE7084B70B50C467B44A6
:100C600000F013F805462046FFF7F4FA002802D0FA
:100C70000020C04370BD284670BD0000E3F5FFFFB3
:100C800001694A1C02610878704700B58FB0029173
:100C9000002105910549019379440391114604907F
:100CA0006846FFF749FE0FB000BD0000E5FFFFFFFB
:100CB000754600F023F8AE46050069465346C00865
:100CC000C000854618B020B5FFF792FA60BC002737
:100CD0004908B6460026C0C5C0C5C0C5C0C5C0C508
:100CE000C0C5C0C5C0C5403D49008D4670470446DB
:100CF000C046C0462046FFF738FA0000004870475B
:100D00004804002001491820ABBEFEE7260002007F
:100D1000704730380A2801D2012070470020704700
:100D2000001BB7000000000000805101008051014D
:100D3000001BB7000000000000805101008051013D
:100D40003031323334353637383941424344454601
:100D500040305800303132333435363738396162FB
:100D60006364656640307800880D00000000002054
:100D70002C00000004010000B40D00002C00002035
:100D80007C060000200100000080510116000000D8
:100D90000000000000000000010000000000000052
:100DA0000000000001000000000000000100000041
:040DB000E803000054
:04000005000001E115
:00000001FF
